{
  "contractName": "SimpleStorage",
  "abi": [
    {
      "inputs": [],
      "name": "value",
      "outputs": [
        {
          "internalType": "string",
          "name": "",
          "type": "string"
        }
      ],
      "stateMutability": "view",
      "type": "function",
      "constant": true
    },
    {
      "inputs": [
        {
          "internalType": "uint256",
          "name": "_value",
          "type": "uint256"
        }
      ],
      "name": "setValue",
      "outputs": [],
      "stateMutability": "payable",
      "type": "function",
      "payable": true
    },
    {
      "inputs": [],
      "name": "getValue",
      "outputs": [
        {
          "internalType": "uint256",
          "name": "",
          "type": "uint256"
        }
      ],
      "stateMutability": "view",
      "type": "function",
      "constant": true
    }
  ],
  "bytecode": "0x608060405234801561001057600080fd5b506102fc806100206000396000f3fe6080604052600436106100345760003560e01c806320965255146100395780633fa4f2451461006457806355241077146100f4575b600080fd5b34801561004557600080fd5b5061004e610122565b6040518082815260200191505060405180910390f35b34801561007057600080fd5b50610079610169565b6040518080602001828103825283818151815260200191508051906020019080838360005b838110156100b957808201518184015260208101905061009e565b50505050905090810190601f1680156100e65780820380516001836020036101000a031916815260200191505b509250505060405180910390f35b6101206004803603602081101561010a57600080fd5b8101908080359060200190929190505050610207565b005b6000600160003373ffffffffffffffffffffffffffffffffffffffff1673ffffffffffffffffffffffffffffffffffffffff16815260200190815260200160002054905090565b60008054600181600116156101000203166002900480601f0160208091040260200160405190810160405280929190818152602001828054600181600116156101000203166002900480156101ff5780601f106101d4576101008083540402835291602001916101ff565b820191906000526020600020905b8154815290600101906020018083116101e257829003601f168201915b505050505081565b61271034101561027f576040517f08c379a000000000000000000000000000000000000000000000000000000000815260040180806020018281038252600f8152602001807f4e6f20456e6f75676e204574686572000000000000000000000000000000000081525060200191505060405180910390fd5b80600160003373ffffffffffffffffffffffffffffffffffffffff1673ffffffffffffffffffffffffffffffffffffffff168152602001908152602001600020819055505056fea2646970667358221220bab2aaec743dc54c96aa342fe34f938bf8097bcb4846a8461e82bd9bb5ab0ef264736f6c63430006010033",
  "source": "pragma solidity ^0.6.0;\r\n\r\ncontract SimpleStorage {\r\n    string public value;\r\n    mapping(address => uint256) addressToValue; //the key used to encrypt the data encrypted with the public key\r\n\r\n    function setValue(uint256 _value) external payable {\r\n        require(msg.value >= 10000, \"No Enougn Ether\");\r\n        addressToValue[msg.sender] = _value;\r\n    }\r\n\r\n    function getValue() external view returns (uint256) {\r\n        return addressToValue[msg.sender];\r\n    }\r\n\r\n}\r\n",
  "sourcePath": "D:/tutorials/Html_Css/My_Websites/Blockchain Projects/private-records/contracts/SimpleStorage.sol",
  "compiler": {
    "name": "solc",
    "version": "0.6.1+commit.e6f7d5a4.Emscripten.clang"
  },
  "schemaVersion": "3.0.20",
  "updatedAt": "2020-02-20T11:22:54.045Z",
  "networkType": "ethereum",
  "devdoc": {
    "methods": {}
  },
  "userdoc": {
    "methods": {}
  }
}